{
  "contractName": "quiniela",
  "abi": [
    {
      "constant": true,
      "inputs": [],
      "name": "cost",
      "outputs": [
        {
          "name": "",
          "type": "uint256"
        }
      ],
      "payable": false,
      "stateMutability": "view",
      "type": "function"
    },
    {
      "constant": true,
      "inputs": [
        {
          "name": "",
          "type": "uint256"
        }
      ],
      "name": "teams",
      "outputs": [
        {
          "name": "",
          "type": "string"
        }
      ],
      "payable": false,
      "stateMutability": "view",
      "type": "function"
    },
    {
      "constant": true,
      "inputs": [
        {
          "name": "",
          "type": "uint256"
        }
      ],
      "name": "winnerMoney",
      "outputs": [
        {
          "name": "",
          "type": "uint256"
        }
      ],
      "payable": false,
      "stateMutability": "view",
      "type": "function"
    },
    {
      "constant": true,
      "inputs": [
        {
          "name": "",
          "type": "uint256"
        }
      ],
      "name": "winners",
      "outputs": [
        {
          "name": "",
          "type": "address"
        }
      ],
      "payable": false,
      "stateMutability": "view",
      "type": "function"
    },
    {
      "constant": true,
      "inputs": [
        {
          "name": "",
          "type": "address"
        }
      ],
      "name": "users",
      "outputs": [
        {
          "name": "used",
          "type": "bool"
        },
        {
          "name": "place1",
          "type": "uint256"
        },
        {
          "name": "place2",
          "type": "uint256"
        },
        {
          "name": "place3",
          "type": "uint256"
        },
        {
          "name": "name",
          "type": "string"
        },
        {
          "name": "date",
          "type": "uint256"
        },
        {
          "name": "voted",
          "type": "bool"
        }
      ],
      "payable": false,
      "stateMutability": "view",
      "type": "function"
    },
    {
      "constant": true,
      "inputs": [],
      "name": "antiVotes",
      "outputs": [
        {
          "name": "",
          "type": "uint256"
        }
      ],
      "payable": false,
      "stateMutability": "view",
      "type": "function"
    },
    {
      "constant": true,
      "inputs": [],
      "name": "votes",
      "outputs": [
        {
          "name": "",
          "type": "uint256"
        }
      ],
      "payable": false,
      "stateMutability": "view",
      "type": "function"
    },
    {
      "constant": true,
      "inputs": [],
      "name": "toVote",
      "outputs": [
        {
          "name": "",
          "type": "bool"
        }
      ],
      "payable": false,
      "stateMutability": "view",
      "type": "function"
    },
    {
      "constant": true,
      "inputs": [
        {
          "name": "",
          "type": "uint256"
        }
      ],
      "name": "players",
      "outputs": [
        {
          "name": "",
          "type": "address"
        }
      ],
      "payable": false,
      "stateMutability": "view",
      "type": "function"
    },
    {
      "constant": true,
      "inputs": [],
      "name": "admin",
      "outputs": [
        {
          "name": "",
          "type": "address"
        }
      ],
      "payable": false,
      "stateMutability": "view",
      "type": "function"
    },
    {
      "inputs": [],
      "payable": false,
      "stateMutability": "nonpayable",
      "type": "constructor"
    },
    {
      "constant": false,
      "inputs": [
        {
          "name": "_place1",
          "type": "uint256"
        },
        {
          "name": "_place2",
          "type": "uint256"
        },
        {
          "name": "_place3",
          "type": "uint256"
        },
        {
          "name": "_name",
          "type": "string"
        },
        {
          "name": "_password",
          "type": "string"
        }
      ],
      "name": "addUser",
      "outputs": [],
      "payable": true,
      "stateMutability": "payable",
      "type": "function"
    },
    {
      "constant": false,
      "inputs": [
        {
          "name": "_winners",
          "type": "address[]"
        },
        {
          "name": "_money",
          "type": "uint256[]"
        }
      ],
      "name": "setWinners",
      "outputs": [],
      "payable": false,
      "stateMutability": "nonpayable",
      "type": "function"
    },
    {
      "constant": false,
      "inputs": [
        {
          "name": "_vote",
          "type": "bool"
        }
      ],
      "name": "vote",
      "outputs": [
        {
          "name": "",
          "type": "bool"
        }
      ],
      "payable": false,
      "stateMutability": "nonpayable",
      "type": "function"
    },
    {
      "constant": true,
      "inputs": [],
      "name": "playersLength",
      "outputs": [
        {
          "name": "",
          "type": "uint256"
        }
      ],
      "payable": false,
      "stateMutability": "view",
      "type": "function"
    },
    {
      "constant": true,
      "inputs": [],
      "name": "winnersLength",
      "outputs": [
        {
          "name": "",
          "type": "uint256"
        }
      ],
      "payable": false,
      "stateMutability": "view",
      "type": "function"
    },
    {
      "constant": false,
      "inputs": [],
      "name": "kill",
      "outputs": [],
      "payable": false,
      "stateMutability": "nonpayable",
      "type": "function"
    }
  ],
  "bytecode": "0x60806040523480156200001157600080fd5b506040805190810160405280600781526020017f4765726d616e7900000000000000000000000000000000000000000000000000815250600660006001815260200190815260200160002090805190602001906200007192919062000c18565b506040805190810160405280600981526020017f417267656e74696e61000000000000000000000000000000000000000000000081525060066000600281526020019081526020016000209080519060200190620000d192919062000c18565b506040805190810160405280600981526020017f4175737472616c69610000000000000000000000000000000000000000000000815250600660006003815260200190815260200160002090805190602001906200013192919062000c18565b506040805190810160405280600781526020017f42656c6769756d00000000000000000000000000000000000000000000000000815250600660006004815260200190815260200160002090805190602001906200019192919062000c18565b506040805190810160405280600681526020017f4272617a696c000000000000000000000000000000000000000000000000000081525060066000600581526020019081526020016000209080519060200190620001f192919062000c18565b506040805190810160405280600881526020017f436f6c6f6d626961000000000000000000000000000000000000000000000000815250600660006006815260200190815260200160002090805190602001906200025192919062000c18565b506040805190810160405280600a81526020017f436f73746120526963610000000000000000000000000000000000000000000081525060066000600781526020019081526020016000209080519060200190620002b192919062000c18565b506040805190810160405280600781526020017f43726f6174696100000000000000000000000000000000000000000000000000815250600660006008815260200190815260200160002090805190602001906200031192919062000c18565b506040805190810160405280600781526020017f44656e6d61726b00000000000000000000000000000000000000000000000000815250600660006009815260200190815260200160002090805190602001906200037192919062000c18565b506040805190810160405280600581526020017f456779707400000000000000000000000000000000000000000000000000000081525060066000600a81526020019081526020016000209080519060200190620003d192919062000c18565b506040805190810160405280600781526020017f456e676c616e640000000000000000000000000000000000000000000000000081525060066000600b815260200190815260200160002090805190602001906200043192919062000c18565b506040805190810160405280600681526020017f4672616e6365000000000000000000000000000000000000000000000000000081525060066000600c815260200190815260200160002090805190602001906200049192919062000c18565b506040805190810160405280600781526020017f4963656c616e640000000000000000000000000000000000000000000000000081525060066000600d81526020019081526020016000209080519060200190620004f192919062000c18565b506040805190810160405280600781526020017f4972204972616e0000000000000000000000000000000000000000000000000081525060066000600e815260200190815260200160002090805190602001906200055192919062000c18565b506040805190810160405280600581526020017f4a6170616e00000000000000000000000000000000000000000000000000000081525060066000600f81526020019081526020016000209080519060200190620005b192919062000c18565b506040805190810160405280600e81526020017f4b6f7265612052657075626c6963000000000000000000000000000000000000815250600660006010815260200190815260200160002090805190602001906200061192919062000c18565b506040805190810160405280600681526020017f4d657869636f0000000000000000000000000000000000000000000000000000815250600660006011815260200190815260200160002090805190602001906200067192919062000c18565b506040805190810160405280600781526020017f4d6f726f63636f0000000000000000000000000000000000000000000000000081525060066000601281526020019081526020016000209080519060200190620006d192919062000c18565b506040805190810160405280600781526020017f4e69676572696100000000000000000000000000000000000000000000000000815250600660006013815260200190815260200160002090805190602001906200073192919062000c18565b506040805190810160405280600681526020017f50616e616d610000000000000000000000000000000000000000000000000000815250600660006014815260200190815260200160002090805190602001906200079192919062000c18565b506040805190810160405280600481526020017f506572750000000000000000000000000000000000000000000000000000000081525060066000601581526020019081526020016000209080519060200190620007f192919062000c18565b506040805190810160405280600681526020017f506f6c616e640000000000000000000000000000000000000000000000000000815250600660006016815260200190815260200160002090805190602001906200085192919062000c18565b506040805190810160405280600881526020017f506f72747567616c00000000000000000000000000000000000000000000000081525060066000601781526020019081526020016000209080519060200190620008b192919062000c18565b506040805190810160405280600681526020017f5275737369610000000000000000000000000000000000000000000000000000815250600660006018815260200190815260200160002090805190602001906200091192919062000c18565b506040805190810160405280600c81526020017f5361756469204172616269610000000000000000000000000000000000000000815250600660006019815260200190815260200160002090805190602001906200097192919062000c18565b506040805190810160405280600781526020017f53656e6567616c0000000000000000000000000000000000000000000000000081525060066000601a81526020019081526020016000209080519060200190620009d192919062000c18565b506040805190810160405280600681526020017f536572626961000000000000000000000000000000000000000000000000000081525060066000601b8152602001908152602001600020908051906020019062000a3192919062000c18565b506040805190810160405280600581526020017f537061696e00000000000000000000000000000000000000000000000000000081525060066000601c8152602001908152602001600020908051906020019062000a9192919062000c18565b506040805190810160405280600681526020017f53776564656e000000000000000000000000000000000000000000000000000081525060066000601d8152602001908152602001600020908051906020019062000af192919062000c18565b506040805190810160405280600b81526020017f537769747a65726c616e6400000000000000000000000000000000000000000081525060066000601e8152602001908152602001600020908051906020019062000b5192919062000c18565b506040805190810160405280600781526020017f54756e697369610000000000000000000000000000000000000000000000000081525060066000601f8152602001908152602001600020908051906020019062000bb192919062000c18565b506040805190810160405280600781526020017f55727567756179000000000000000000000000000000000000000000000000008152506006600060208152602001908152602001600020908051906020019062000c1192919062000c18565b5062000cc7565b828054600181600116156101000203166002900490600052602060002090601f016020900481019282601f1062000c5b57805160ff191683800117855562000c8c565b8280016001018555821562000c8c579182015b8281111562000c8b57825182559160200191906001019062000c6e565b5b50905062000c9b919062000c9f565b5090565b62000cc491905b8082111562000cc057600081600090555060010162000ca6565b5090565b90565b6113e08062000cd76000396000f3006080604052600436106100e6576000357c0100000000000000000000000000000000000000000000000000000000900463ffffffff16806313faede6146100eb5780633b52f2be146101165780633ed2b77a1461014157806341c0e1b5146101e75780634b9f5c98146101fe5780635fca48c91461024557806379192c8514610286578063a2fb11751461032f578063a87430ba1461039c578063c01adfca1461048a578063ca74124c146104b5578063d2079c0f14610575578063e168c3ec146105a0578063ef2d8ce6146105cb578063f71d96cb146105fa578063f851a44014610667575b600080fd5b3480156100f757600080fd5b506101006106be565b6040518082815260200191505060405180910390f35b34801561012257600080fd5b5061012b6106ca565b6040518082815260200191505060405180910390f35b34801561014d57600080fd5b5061016c600480360381019080803590602001909291905050506106d6565b6040518080602001828103825283818151815260200191508051906020019080838360005b838110156101ac578082015181840152602081019050610191565b50505050905090810190601f1680156101d95780820380516001836020036101000a031916815260200191505b509250505060405180910390f35b3480156101f357600080fd5b506101fc610786565b005b34801561020a57600080fd5b5061022b600480360381019080803515159060200190929190505050610801565b604051808215151515815260200191505060405180910390f35b34801561025157600080fd5b506102706004803603810190808035906020019092919050505061096f565b6040518082815260200191505060405180910390f35b34801561029257600080fd5b5061032d6004803603810190808035906020019082018035906020019080806020026020016040519081016040528093929190818152602001838360200280828437820191505050505050919291929080359060200190820180359060200190808060200260200160405190810160405280939291908181526020018383602002808284378201915050505050509192919290505050610992565b005b34801561033b57600080fd5b5061035a60048036038101908080359060200190929190505050610a49565b604051808273ffffffffffffffffffffffffffffffffffffffff1673ffffffffffffffffffffffffffffffffffffffff16815260200191505060405180910390f35b3480156103a857600080fd5b506103dd600480360381019080803573ffffffffffffffffffffffffffffffffffffffff169060200190929190505050610a87565b60405180881515151581526020018781526020018681526020018581526020018060200184815260200183151515158152602001828103825285818151815260200191508051906020019080838360005b8381101561044957808201518184015260208101905061042e565b50505050905090810190601f1680156104765780820380516001836020036101000a031916815260200191505b509850505050505050505060405180910390f35b34801561049657600080fd5b5061049f610b7b565b6040518082815260200191505060405180910390f35b610573600480360381019080803590602001909291908035906020019092919080359060200190929190803590602001908201803590602001908080601f0160208091040260200160405190810160405280939291908181526020018383808284378201915050505050509192919290803590602001908201803590602001908080601f0160208091040260200160405190810160405280939291908181526020018383808284378201915050505050509192919290505050610b81565b005b34801561058157600080fd5b5061058a610e42565b6040518082815260200191505060405180910390f35b3480156105ac57600080fd5b506105b5610e4f565b6040518082815260200191505060405180910390f35b3480156105d757600080fd5b506105e0610e55565b604051808215151515815260200191505060405180910390f35b34801561060657600080fd5b5061062560048036038101908080359060200190929190505050610e68565b604051808273ffffffffffffffffffffffffffffffffffffffff1673ffffffffffffffffffffffffffffffffffffffff16815260200191505060405180910390f35b34801561067357600080fd5b5061067c610ea6565b604051808273ffffffffffffffffffffffffffffffffffffffff1673ffffffffffffffffffffffffffffffffffffffff16815260200191505060405180910390f35b6702c68af0bb14000081565b60008080549050905090565b60066020528060005260406000206000915090508054600181600116156101000203166002900480601f01602080910402602001604051908101604052809291908181526020018280546001816001161561010002031660029004801561077e5780601f106107535761010080835404028352916020019161077e565b820191906000526020600020905b81548152906001019060200180831161076157829003601f168201915b505050505081565b73627306090abab3a6e1400e9345bc60c78a8bef5773ffffffffffffffffffffffffffffffffffffffff163373ffffffffffffffffffffffffffffffffffffffff161415156107d457600080fd5b73627306090abab3a6e1400e9345bc60c78a8bef5773ffffffffffffffffffffffffffffffffffffffff16ff5b6000600260009054906101000a900460ff16151561081e57600080fd5b60001515600760003373ffffffffffffffffffffffffffffffffffffffff1673ffffffffffffffffffffffffffffffffffffffff16815260200190815260200160002060060160009054906101000a900460ff16151514151561088057600080fd5b6001600760003373ffffffffffffffffffffffffffffffffffffffff1673ffffffffffffffffffffffffffffffffffffffff16815260200190815260200160002060060160006101000a81548160ff021916908315150217905550811561092557600160036000828254019250508190555060026108fc610e42565b81151561090557fe5b04600354111561092057610917610ebe565b6001905061096a565b610965565b60016004600082825401925050819055506002610940610e42565b81151561094957fe5b0460045411156109645761095b611020565b6000905061096a565b5b600190505b919050565b60018181548110151561097e57fe5b906000526020600020016000915090505481565b73627306090abab3a6e1400e9345bc60c78a8bef5773ffffffffffffffffffffffffffffffffffffffff163373ffffffffffffffffffffffffffffffffffffffff161415156109e057600080fd5b600260009054906101000a900460ff161515156109fc57600080fd5b8160009080519060200190610a129291906111f5565b508060019080519060200190610a2992919061127f565b506001600260006101000a81548160ff0219169083151502179055505050565b600081815481101515610a5857fe5b906000526020600020016000915054906101000a900473ffffffffffffffffffffffffffffffffffffffff1681565b60076020528060005260406000206000915090508060000160009054906101000a900460ff1690806001015490806002015490806003015490806004018054600181600116156101000203166002900480601f016020809104026020016040519081016040528092919081815260200182805460018160011615610100020316600290048015610b585780601f10610b2d57610100808354040283529160200191610b58565b820191906000526020600020905b815481529060010190602001808311610b3b57829003601f168201915b5050505050908060050154908060060160009054906101000a900460ff16905087565b60045481565b610b8a816110f4565b1515610b9557600080fd5b600760003373ffffffffffffffffffffffffffffffffffffffff1673ffffffffffffffffffffffffffffffffffffffff16815260200190815260200160002060000160009054906101000a900460ff16151515610bf157600080fd5b346702c68af0bb140000141515610c0757600080fd5b84600760003373ffffffffffffffffffffffffffffffffffffffff1673ffffffffffffffffffffffffffffffffffffffff1681526020019081526020016000206001018190555083600760003373ffffffffffffffffffffffffffffffffffffffff1673ffffffffffffffffffffffffffffffffffffffff1681526020019081526020016000206002018190555082600760003373ffffffffffffffffffffffffffffffffffffffff1673ffffffffffffffffffffffffffffffffffffffff1681526020019081526020016000206003018190555081600760003373ffffffffffffffffffffffffffffffffffffffff1673ffffffffffffffffffffffffffffffffffffffff1681526020019081526020016000206004019080519060200190610d329291906112cc565b5042600760003373ffffffffffffffffffffffffffffffffffffffff1673ffffffffffffffffffffffffffffffffffffffff168152602001908152602001600020600501819055506001600760003373ffffffffffffffffffffffffffffffffffffffff1673ffffffffffffffffffffffffffffffffffffffff16815260200190815260200160002060000160006101000a81548160ff02191690831515021790555060053390806001815401808255809150509060018203906000526020600020016000909192909190916101000a81548173ffffffffffffffffffffffffffffffffffffffff021916908373ffffffffffffffffffffffffffffffffffffffff160217905550505050505050565b6000600580549050905090565b60035481565b600260009054906101000a900460ff1681565b600581815481101515610e7757fe5b906000526020600020016000915054906101000a900473ffffffffffffffffffffffffffffffffffffffff1681565b73627306090abab3a6e1400e9345bc60c78a8bef5781565b60008090505b6001610ece6106ca565b03811015610f7c57600081815481101515610ee557fe5b9060005260206000200160009054906101000a900473ffffffffffffffffffffffffffffffffffffffff1673ffffffffffffffffffffffffffffffffffffffff166108fc600183815481101515610f3857fe5b90600052602060002001549081150290604051600060405180830381858888f19350505050158015610f6e573d6000803e3d6000fd5b508080600101915050610ec4565b60006001610f886106ca565b03815481101515610f9557fe5b9060005260206000200160009054906101000a900473ffffffffffffffffffffffffffffffffffffffff1673ffffffffffffffffffffffffffffffffffffffff166108fc3073ffffffffffffffffffffffffffffffffffffffff16319081150290604051600060405180830381858888f1935050505015801561101c573d6000803e3d6000fd5b5050565b60008061102b610e42565b3073ffffffffffffffffffffffffffffffffffffffff163181151561104c57fe5b049150600090505b61105c610e42565b8110156110f05760058181548110151561107257fe5b9060005260206000200160009054906101000a900473ffffffffffffffffffffffffffffffffffffffff1673ffffffffffffffffffffffffffffffffffffffff166108fc839081150290604051600060405180830381858888f193505050501580156110e2573d6000803e3d6000fd5b508080600101915050611054565b5050565b60007f2a56a8951ea80f8d88e626b0e9632a3c2fe7c1f6f450a8838e03734380d1c049600102826040516020018082805190602001908083835b602083101515611153578051825260208201915060208101905060208303925061112e565b6001836020036101000a0380198251168184511680821785525050505050509050019150506040516020818303038152906040526040518082805190602001908083835b6020831015156111bc5780518252602082019150602081019050602083039250611197565b6001836020036101000a038019825116818451168082178552505050505050905001915050604051809103902060001916149050919050565b82805482825590600052602060002090810192821561126e579160200282015b8281111561126d5782518260006101000a81548173ffffffffffffffffffffffffffffffffffffffff021916908373ffffffffffffffffffffffffffffffffffffffff16021790555091602001919060010190611215565b5b50905061127b919061134c565b5090565b8280548282559060005260206000209081019282156112bb579160200282015b828111156112ba57825182559160200191906001019061129f565b5b5090506112c8919061138f565b5090565b828054600181600116156101000203166002900490600052602060002090601f016020900481019282601f1061130d57805160ff191683800117855561133b565b8280016001018555821561133b579182015b8281111561133a57825182559160200191906001019061131f565b5b509050611348919061138f565b5090565b61138c91905b8082111561138857600081816101000a81549073ffffffffffffffffffffffffffffffffffffffff021916905550600101611352565b5090565b90565b6113b191905b808211156113ad576000816000905550600101611395565b5090565b905600a165627a7a7230582054d3272f2441e4c2e07dd0f1c520d58376e0acfa9cc22e8440e8bb89762015980029",
  "source": "pragma solidity ^0.4.24;\n\n/** @title quiniela. */\ncontract quiniela{\n\n    // SRUCTS.\n\n    struct user{        // Struct of the participant.\n        bool    used;   // If this address is used.\n        uint    place1; // Id of team 1.\n        uint    place2; // Id of team 2.\n        uint    place3; // Id of team 3.\n        string  name;   // Name of the participant.\n        uint256 date;   // Timestamp.\n        bool    voted;\n\n    }\n\n    // TYPES.\n\n    address [] public winners;              // Array of winners.\n    uint256 [] public winnerMoney;          // Array of amount for each winner.\n    bool public toVote;\n    uint public votes;                      // Counter for the number of votes.\n    uint public antiVotes;                  // Counter for the number of anti-votes.\n    address [] public players;              // Array of participants.\n    mapping (uint => string) public teams;  // Id of each team.\n    address public constant admin = 0x627306090abab3a6e1400e9345bc60c78a8bef57; //Admin of the contract.\n    mapping (address => user) public users;\n    uint public constant cost = 0.2 ether;  // Cost tu enter in the football pool.\n\n    // MODIFIERS.\n\n    // Check if the sender is the admin of the contract.\n    modifier onlyAdmin() {\n        require( msg.sender == admin );\n        _;\n    }\n\n    // CONSTRUCTOR.\n\n    /**\n    * @dev This function is executed at initialization and sets the team of the football pool.\n    */\n    constructor() public {\n        teams[1] = \"Germany\";\n        teams[2] = \"Argentina\";\n        teams[3] = \"Australia\";\n        teams[4] = \"Belgium\";\n        teams[5] = \"Brazil\";\n        teams[6] = \"Colombia\";\n        teams[7] = \"Costa Rica\";\n        teams[8] = \"Croatia\";\n        teams[9] = \"Denmark\";\n        teams[10] = \"Egypt\";\n        teams[11] = \"England\";\n        teams[12] = \"France\";\n        teams[13] = \"Iceland\";\n        teams[14] = \"Ir Iran\";\n        teams[15] = \"Japan\";\n        teams[16] = \"Korea Republic\";\n        teams[17] = \"Mexico\";\n        teams[18] = \"Morocco\";\n        teams[19] = \"Nigeria\";\n        teams[20] = \"Panama\";\n        teams[21] = \"Peru\";\n        teams[22] = \"Poland\";\n        teams[23] = \"Portugal\";\n        teams[24] = \"Russia\";\n        teams[25] =  \"Saudi Arabia\";\n        teams[26] = \"Senegal\";\n        teams[27] = \"Serbia\";\n        teams[28] = \"Spain\";\n        teams[29] = \"Sweden\";\n        teams[30] = \"Switzerland\";\n        teams[31] = \"Tunisia\";\n        teams[32] = \"Uruguay\";\n    }\n\n    // PUBLIC METHODS\n\n    /**\n    * @dev Function to add an user, the user need the password.\n    * @param _place1 - Uint - To set the place 1.\n    * @param _place1 - Uint - To set the place 2.\n    * @param _place1 - Uint - To set the place 3.\n    * @param _name - String - To set the name.\n    * @param _password - String - Password of the football pool.\n    */\n    function addUser ( uint _place1, uint _place2, uint _place3, string _name, string _password ) public  payable {\n        require( isPassword( _password ) ); // #crypto_Polla2018\n        require( !users[ msg.sender ].used );\n        require( cost == msg.value );\n        users[msg.sender].place1 = _place1; // Set _place1.\n        users[msg.sender].place2 = _place2; // Set _place2.\n        users[msg.sender].place3 = _place3; // Set _place3.\n        users[msg.sender].name = _name;     // Set name.\n        users[msg.sender].date = now;       // Set timestamp.\n        users[msg.sender].used = true;\n        players.push( msg.sender );           // Push to the array.\n    }\n\n    /**\n    * @dev Function to set the winners to the winners array.\n    */\n    function setWinners ( address [] _winners,  uint256 [] _money ) public onlyAdmin() {\n        require( !toVote );\n        winners = _winners;\n        winnerMoney =_money;\n        toVote = true;\n    }\n\n    /**\n    * @dev Function to vote. Pay the money if more than 50% of the particiants are agree.\n    */\n    function vote ( bool _vote ) public returns ( bool ) {\n        require( toVote );                           // The participant can vote.\n        require( users[msg.sender].voted == false ); // The participant vote.\n        users[msg.sender].voted = true;\n        if( _vote ) {\n            votes += 1;                              // Increment in 1 the votes.\n            if( votes > ( playersLength() / 2 ) ) {  // The votes are more than 50% of the participants.\n                payMoney();                          // Call 'payMoney ' function.\n                return true;\n            }\n        } else {\n            antiVotes += 1;                             // Increment in 1 the antivotes.\n            if( antiVotes > ( playersLength() / 2 ) ) { // The antiVotes are more than 50% of the participants.\n                returnMoney();                          // Call 'returnMoney' function.\n                return false;\n            }\n        }\n        return true;\n    }\n\n    /**\n    * @dev Function to get players array length.\n    */\n    function playersLength () public constant returns ( uint ) {\n        return players.length;\n    }\n\n    /**\n    * @dev Function to get winners array length.\n    */\n    function winnersLength () public constant returns ( uint ) {\n        return winners.length;\n    }\n\n    /**\n    * @dev Function to recover the funds of the contract.\n    */\n    function kill () public onlyAdmin() {\n        selfdestruct( admin );\n    }\n\n    // PRIVATE METHODS\n\n    /**\n    * @dev Function to pay the money to each winner.\n    */\n    function payMoney () private {\n        for( uint x = 0; x < winnersLength() - 1 ; x++ ) {\n            winners[x].transfer( winnerMoney[x] );                          // Transfer ether to the winner.\n        }\n        winners[ winnersLength() - 1 ].transfer( address( this ).balance ); // Transfer the rest of the ether.\n    }\n\n    /**\n    * @dev Function to return the money to the participants.\n    */\n    function returnMoney() private {\n        uint money = address( this ).balance / playersLength(); // Calculate the amount per participant. \n        for( uint x = 0 ; x < playersLength() ; x++ ) {          \n            players[ x ].transfer( money );                     // Transfer the amount.\n        }\n    }\n\n    /**\n    * @dev Function to compare the password.\n    * @return Bool - Valid password.\n    */\n    function isPassword( string _cad ) private pure returns ( bool ) {\n        return keccak256( abi.encodePacked( _cad ) ) == 0x2a56a8951ea80f8d88e626b0e9632a3c2fe7c1f6f450a8838e03734380d1c049;\n    }\n\n}\n",
  "sourcePath": "/Users/mac/Documents/woonkly.github.com/quiniela_contract/contracts/Quiniela.sol",
  "compiler": {
    "name": "solc",
    "version": "0.4.24+commit.e67f0147.Emscripten.clang"
  },
  "schemaVersion": "2.0.1",
  "updatedAt": "2018-08-21T14:24:32.981Z"
}