{
  "contractName": "quiniela",
  "abi": [
    {
      "constant": true,
      "inputs": [],
      "name": "cost",
      "outputs": [
        {
          "name": "",
          "type": "uint256"
        }
      ],
      "payable": false,
      "stateMutability": "view",
      "type": "function"
    },
    {
      "constant": true,
      "inputs": [
        {
          "name": "",
          "type": "uint256"
        }
      ],
      "name": "teams",
      "outputs": [
        {
          "name": "",
          "type": "string"
        }
      ],
      "payable": false,
      "stateMutability": "view",
      "type": "function"
    },
    {
      "constant": true,
      "inputs": [
        {
          "name": "",
          "type": "uint256"
        }
      ],
      "name": "winners",
      "outputs": [
        {
          "name": "",
          "type": "address"
        }
      ],
      "payable": false,
      "stateMutability": "view",
      "type": "function"
    },
    {
      "constant": true,
      "inputs": [
        {
          "name": "",
          "type": "address"
        }
      ],
      "name": "users",
      "outputs": [
        {
          "name": "used",
          "type": "bool"
        },
        {
          "name": "place1",
          "type": "uint256"
        },
        {
          "name": "place2",
          "type": "uint256"
        },
        {
          "name": "place3",
          "type": "uint256"
        },
        {
          "name": "name",
          "type": "string"
        },
        {
          "name": "date",
          "type": "uint256"
        },
        {
          "name": "voted",
          "type": "bool"
        }
      ],
      "payable": false,
      "stateMutability": "view",
      "type": "function"
    },
    {
      "constant": true,
      "inputs": [],
      "name": "votes",
      "outputs": [
        {
          "name": "",
          "type": "uint256"
        }
      ],
      "payable": false,
      "stateMutability": "view",
      "type": "function"
    },
    {
      "constant": true,
      "inputs": [],
      "name": "toVote",
      "outputs": [
        {
          "name": "",
          "type": "bool"
        }
      ],
      "payable": false,
      "stateMutability": "view",
      "type": "function"
    },
    {
      "constant": true,
      "inputs": [
        {
          "name": "",
          "type": "uint256"
        }
      ],
      "name": "players",
      "outputs": [
        {
          "name": "",
          "type": "address"
        }
      ],
      "payable": false,
      "stateMutability": "view",
      "type": "function"
    },
    {
      "constant": true,
      "inputs": [],
      "name": "admin",
      "outputs": [
        {
          "name": "",
          "type": "address"
        }
      ],
      "payable": false,
      "stateMutability": "view",
      "type": "function"
    },
    {
      "inputs": [],
      "payable": false,
      "stateMutability": "nonpayable",
      "type": "constructor"
    },
    {
      "constant": false,
      "inputs": [
        {
          "name": "_place1",
          "type": "uint256"
        },
        {
          "name": "_place2",
          "type": "uint256"
        },
        {
          "name": "_place3",
          "type": "uint256"
        },
        {
          "name": "_name",
          "type": "string"
        },
        {
          "name": "_password",
          "type": "string"
        }
      ],
      "name": "addUser",
      "outputs": [],
      "payable": true,
      "stateMutability": "payable",
      "type": "function"
    },
    {
      "constant": false,
      "inputs": [
        {
          "name": "_winners",
          "type": "address[]"
        }
      ],
      "name": "setWinners",
      "outputs": [],
      "payable": false,
      "stateMutability": "nonpayable",
      "type": "function"
    },
    {
      "constant": false,
      "inputs": [
        {
          "name": "_vote",
          "type": "bool"
        }
      ],
      "name": "vote",
      "outputs": [
        {
          "name": "",
          "type": "bool"
        }
      ],
      "payable": false,
      "stateMutability": "nonpayable",
      "type": "function"
    },
    {
      "constant": true,
      "inputs": [],
      "name": "playersLength",
      "outputs": [
        {
          "name": "",
          "type": "uint256"
        }
      ],
      "payable": false,
      "stateMutability": "view",
      "type": "function"
    },
    {
      "constant": false,
      "inputs": [],
      "name": "kill",
      "outputs": [],
      "payable": false,
      "stateMutability": "nonpayable",
      "type": "function"
    }
  ],
  "bytecode": "0x60806040523480156200001157600080fd5b506040805190810160405280600781526020017f4765726d616e7900000000000000000000000000000000000000000000000000815250600460006001815260200190815260200160002090805190602001906200007192919062000c18565b506040805190810160405280600981526020017f417267656e74696e61000000000000000000000000000000000000000000000081525060046000600281526020019081526020016000209080519060200190620000d192919062000c18565b506040805190810160405280600981526020017f4175737472616c69610000000000000000000000000000000000000000000000815250600460006003815260200190815260200160002090805190602001906200013192919062000c18565b506040805190810160405280600781526020017f42656c6769756d00000000000000000000000000000000000000000000000000815250600460006004815260200190815260200160002090805190602001906200019192919062000c18565b506040805190810160405280600681526020017f4272617a696c000000000000000000000000000000000000000000000000000081525060046000600581526020019081526020016000209080519060200190620001f192919062000c18565b506040805190810160405280600881526020017f436f6c6f6d626961000000000000000000000000000000000000000000000000815250600460006006815260200190815260200160002090805190602001906200025192919062000c18565b506040805190810160405280600a81526020017f436f73746120526963610000000000000000000000000000000000000000000081525060046000600781526020019081526020016000209080519060200190620002b192919062000c18565b506040805190810160405280600781526020017f43726f6174696100000000000000000000000000000000000000000000000000815250600460006008815260200190815260200160002090805190602001906200031192919062000c18565b506040805190810160405280600781526020017f44656e6d61726b00000000000000000000000000000000000000000000000000815250600460006009815260200190815260200160002090805190602001906200037192919062000c18565b506040805190810160405280600581526020017f456779707400000000000000000000000000000000000000000000000000000081525060046000600a81526020019081526020016000209080519060200190620003d192919062000c18565b506040805190810160405280600781526020017f456e676c616e640000000000000000000000000000000000000000000000000081525060046000600b815260200190815260200160002090805190602001906200043192919062000c18565b506040805190810160405280600681526020017f4672616e6365000000000000000000000000000000000000000000000000000081525060046000600c815260200190815260200160002090805190602001906200049192919062000c18565b506040805190810160405280600781526020017f4963656c616e640000000000000000000000000000000000000000000000000081525060046000600d81526020019081526020016000209080519060200190620004f192919062000c18565b506040805190810160405280600781526020017f4972204972616e0000000000000000000000000000000000000000000000000081525060046000600e815260200190815260200160002090805190602001906200055192919062000c18565b506040805190810160405280600581526020017f4a6170616e00000000000000000000000000000000000000000000000000000081525060046000600f81526020019081526020016000209080519060200190620005b192919062000c18565b506040805190810160405280600e81526020017f4b6f7265612052657075626c6963000000000000000000000000000000000000815250600460006010815260200190815260200160002090805190602001906200061192919062000c18565b506040805190810160405280600681526020017f4d657869636f0000000000000000000000000000000000000000000000000000815250600460006011815260200190815260200160002090805190602001906200067192919062000c18565b506040805190810160405280600781526020017f4d6f726f63636f0000000000000000000000000000000000000000000000000081525060046000601281526020019081526020016000209080519060200190620006d192919062000c18565b506040805190810160405280600781526020017f4e69676572696100000000000000000000000000000000000000000000000000815250600460006013815260200190815260200160002090805190602001906200073192919062000c18565b506040805190810160405280600681526020017f50616e616d610000000000000000000000000000000000000000000000000000815250600460006014815260200190815260200160002090805190602001906200079192919062000c18565b506040805190810160405280600481526020017f506572750000000000000000000000000000000000000000000000000000000081525060046000601581526020019081526020016000209080519060200190620007f192919062000c18565b506040805190810160405280600681526020017f506f6c616e640000000000000000000000000000000000000000000000000000815250600460006016815260200190815260200160002090805190602001906200085192919062000c18565b506040805190810160405280600881526020017f506f72747567616c00000000000000000000000000000000000000000000000081525060046000601781526020019081526020016000209080519060200190620008b192919062000c18565b506040805190810160405280600681526020017f5275737369610000000000000000000000000000000000000000000000000000815250600460006018815260200190815260200160002090805190602001906200091192919062000c18565b506040805190810160405280600c81526020017f5361756469204172616269610000000000000000000000000000000000000000815250600460006019815260200190815260200160002090805190602001906200097192919062000c18565b506040805190810160405280600781526020017f53656e6567616c0000000000000000000000000000000000000000000000000081525060046000601a81526020019081526020016000209080519060200190620009d192919062000c18565b506040805190810160405280600681526020017f536572626961000000000000000000000000000000000000000000000000000081525060046000601b8152602001908152602001600020908051906020019062000a3192919062000c18565b506040805190810160405280600581526020017f537061696e00000000000000000000000000000000000000000000000000000081525060046000601c8152602001908152602001600020908051906020019062000a9192919062000c18565b506040805190810160405280600681526020017f53776564656e000000000000000000000000000000000000000000000000000081525060046000601d8152602001908152602001600020908051906020019062000af192919062000c18565b506040805190810160405280600b81526020017f537769747a65726c616e6400000000000000000000000000000000000000000081525060046000601e8152602001908152602001600020908051906020019062000b5192919062000c18565b506040805190810160405280600781526020017f54756e697369610000000000000000000000000000000000000000000000000081525060046000601f8152602001908152602001600020908051906020019062000bb192919062000c18565b506040805190810160405280600781526020017f55727567756179000000000000000000000000000000000000000000000000008152506004600060208152602001908152602001600020908051906020019062000c1192919062000c18565b5062000cc7565b828054600181600116156101000203166002900490600052602060002090601f016020900481019282601f1062000c5b57805160ff191683800117855562000c8c565b8280016001018555821562000c8c579182015b8281111562000c8b57825182559160200191906001019062000c6e565b5b50905062000c9b919062000c9f565b5090565b62000cc491905b8082111562000cc057600081600090555060010162000ca6565b5090565b90565b61109b8062000cd76000396000f3006080604052600436106100c5576000357c0100000000000000000000000000000000000000000000000000000000900463ffffffff16806313faede6146100ca5780633ed2b77a146100f557806341c0e1b51461019b578063445e6b39146101b25780634b9f5c9814610218578063a2fb11751461025f578063a87430ba146102cc578063ca74124c146103ba578063d2079c0f1461047a578063e168c3ec146104a5578063ef2d8ce6146104d0578063f71d96cb146104ff578063f851a4401461056c575b600080fd5b3480156100d657600080fd5b506100df6105c3565b6040518082815260200191505060405180910390f35b34801561010157600080fd5b50610120600480360381019080803590602001909291905050506105cf565b6040518080602001828103825283818151815260200191508051906020019080838360005b83811015610160578082015181840152602081019050610145565b50505050905090810190601f16801561018d5780820380516001836020036101000a031916815260200191505b509250505060405180910390f35b3480156101a757600080fd5b506101b061067f565b005b3480156101be57600080fd5b50610216600480360381019080803590602001908201803590602001908080602002602001604051908101604052809392919081815260200183836020028082843782019150505050505091929192905050506106fa565b005b34801561022457600080fd5b5061024560048036038101908080351515906020019092919050505061077c565b604051808215151515815260200191505060405180910390f35b34801561026b57600080fd5b5061028a6004803603810190808035906020019092919050505061089d565b604051808273ffffffffffffffffffffffffffffffffffffffff1673ffffffffffffffffffffffffffffffffffffffff16815260200191505060405180910390f35b3480156102d857600080fd5b5061030d600480360381019080803573ffffffffffffffffffffffffffffffffffffffff1690602001909291905050506108db565b60405180881515151581526020018781526020018681526020018581526020018060200184815260200183151515158152602001828103825285818151815260200191508051906020019080838360005b8381101561037957808201518184015260208101905061035e565b50505050905090810190601f1680156103a65780820380516001836020036101000a031916815260200191505b509850505050505050505060405180910390f35b610478600480360381019080803590602001909291908035906020019092919080359060200190929190803590602001908201803590602001908080601f0160208091040260200160405190810160405280939291908181526020018383808284378201915050505050509192919290803590602001908201803590602001908080601f01602080910402602001604051908101604052809392919081815260200183838082843782019150505050505091929192905050506109cf565b005b34801561048657600080fd5b5061048f610c7a565b6040518082815260200191505060405180910390f35b3480156104b157600080fd5b506104ba610c87565b6040518082815260200191505060405180910390f35b3480156104dc57600080fd5b506104e5610c8d565b604051808215151515815260200191505060405180910390f35b34801561050b57600080fd5b5061052a60048036038101908080359060200190929190505050610ca0565b604051808273ffffffffffffffffffffffffffffffffffffffff1673ffffffffffffffffffffffffffffffffffffffff16815260200191505060405180910390f35b34801561057857600080fd5b50610581610cde565b604051808273ffffffffffffffffffffffffffffffffffffffff1673ffffffffffffffffffffffffffffffffffffffff16815260200191505060405180910390f35b6702c68af0bb14000081565b60046020528060005260406000206000915090508054600181600116156101000203166002900480601f0160208091040260200160405190810160405280929190818152602001828054600181600116156101000203166002900480156106775780601f1061064c57610100808354040283529160200191610677565b820191906000526020600020905b81548152906001019060200180831161065a57829003601f168201915b505050505081565b7303c7ae1f93efc950a55f6893624d639f02b0ef7c73ffffffffffffffffffffffffffffffffffffffff163373ffffffffffffffffffffffffffffffffffffffff161415156106cd57600080fd5b7303c7ae1f93efc950a55f6893624d639f02b0ef7c73ffffffffffffffffffffffffffffffffffffffff16ff5b7303c7ae1f93efc950a55f6893624d639f02b0ef7c73ffffffffffffffffffffffffffffffffffffffff163373ffffffffffffffffffffffffffffffffffffffff1614151561074857600080fd5b806000908051906020019061075e929190610efd565b5060018060006101000a81548160ff02191690831515021790555050565b6000600160009054906101000a900460ff16151561079957600080fd5b60001515600560003373ffffffffffffffffffffffffffffffffffffffff1673ffffffffffffffffffffffffffffffffffffffff16815260200190815260200160002060060160009054906101000a900460ff1615151415156107fb57600080fd5b6001600560003373ffffffffffffffffffffffffffffffffffffffff1673ffffffffffffffffffffffffffffffffffffffff16815260200190815260200160002060060160006101000a81548160ff02191690831515021790555081156108945760016002600082825401925050819055506002610877610c7a565b81151561088057fe5b04600254111561089357610892610cf6565b5b5b60019050919050565b6000818154811015156108ac57fe5b906000526020600020016000915054906101000a900473ffffffffffffffffffffffffffffffffffffffff1681565b60056020528060005260406000206000915090508060000160009054906101000a900460ff1690806001015490806002015490806003015490806004018054600181600116156101000203166002900480601f0160208091040260200160405190810160405280929190818152602001828054600181600116156101000203166002900480156109ac5780601f10610981576101008083540402835291602001916109ac565b820191906000526020600020905b81548152906001019060200180831161098f57829003601f168201915b5050505050908060050154908060060160009054906101000a900460ff16905087565b6109d881610e68565b15156109e357600080fd5b600560003373ffffffffffffffffffffffffffffffffffffffff1673ffffffffffffffffffffffffffffffffffffffff16815260200190815260200160002060000160009054906101000a900460ff16151515610a3f57600080fd5b84600560003373ffffffffffffffffffffffffffffffffffffffff1673ffffffffffffffffffffffffffffffffffffffff1681526020019081526020016000206001018190555083600560003373ffffffffffffffffffffffffffffffffffffffff1673ffffffffffffffffffffffffffffffffffffffff1681526020019081526020016000206002018190555082600560003373ffffffffffffffffffffffffffffffffffffffff1673ffffffffffffffffffffffffffffffffffffffff1681526020019081526020016000206003018190555081600560003373ffffffffffffffffffffffffffffffffffffffff1673ffffffffffffffffffffffffffffffffffffffff1681526020019081526020016000206004019080519060200190610b6a929190610f87565b5042600560003373ffffffffffffffffffffffffffffffffffffffff1673ffffffffffffffffffffffffffffffffffffffff168152602001908152602001600020600501819055506001600560003373ffffffffffffffffffffffffffffffffffffffff1673ffffffffffffffffffffffffffffffffffffffff16815260200190815260200160002060000160006101000a81548160ff02191690831515021790555060033390806001815401808255809150509060018203906000526020600020016000909192909190916101000a81548173ffffffffffffffffffffffffffffffffffffffff021916908373ffffffffffffffffffffffffffffffffffffffff160217905550505050505050565b6000600380549050905090565b60025481565b600160009054906101000a900460ff1681565b600381815481101515610caf57fe5b906000526020600020016000915054906101000a900473ffffffffffffffffffffffffffffffffffffffff1681565b7303c7ae1f93efc950a55f6893624d639f02b0ef7c81565b6000806000805490503073ffffffffffffffffffffffffffffffffffffffff1631811515610d2057fe5b049150600090505b600160008054905003811015610dc557600081815481101515610d4757fe5b9060005260206000200160009054906101000a900473ffffffffffffffffffffffffffffffffffffffff1673ffffffffffffffffffffffffffffffffffffffff166108fc839081150290604051600060405180830381858888f19350505050158015610db7573d6000803e3d6000fd5b508080600101915050610d28565b6000600160008054905003815481101515610ddc57fe5b9060005260206000200160009054906101000a900473ffffffffffffffffffffffffffffffffffffffff1673ffffffffffffffffffffffffffffffffffffffff166108fc3073ffffffffffffffffffffffffffffffffffffffff16319081150290604051600060405180830381858888f19350505050158015610e63573d6000803e3d6000fd5b505050565b60007f2a56a8951ea80f8d88e626b0e9632a3c2fe7c1f6f450a8838e03734380d1c049600102826040518082805190602001908083835b602083101515610ec45780518252602082019150602081019050602083039250610e9f565b6001836020036101000a038019825116818451168082178552505050505050905001915050604051809103902060001916149050919050565b828054828255906000526020600020908101928215610f76579160200282015b82811115610f755782518260006101000a81548173ffffffffffffffffffffffffffffffffffffffff021916908373ffffffffffffffffffffffffffffffffffffffff16021790555091602001919060010190610f1d565b5b509050610f839190611007565b5090565b828054600181600116156101000203166002900490600052602060002090601f016020900481019282601f10610fc857805160ff1916838001178555610ff6565b82800160010185558215610ff6579182015b82811115610ff5578251825591602001919060010190610fda565b5b509050611003919061104a565b5090565b61104791905b8082111561104357600081816101000a81549073ffffffffffffffffffffffffffffffffffffffff02191690555060010161100d565b5090565b90565b61106c91905b80821115611068576000816000905550600101611050565b5090565b905600a165627a7a723058208267dea07a68217886b8c50812066d745c753d77f514ce73127a412f67567c830029",
  "source": "pragma solidity ^0.4.24;\n\n\ncontract quiniela{\n    \n    struct user{\n        bool used;\n        uint place1;\n        uint place2;\n        uint place3;\n        string name;\n        uint256 date;\n        bool voted;\n        \n    }\n    \n    address [] public winners;\n    bool public toVote;\n    uint public votes;\n    \n    address [] public players;\n    mapping (uint => string) public teams;\n    address public constant admin= 0x03C7Ae1f93efC950A55f6893624D639F02b0EF7c;\n    mapping (address => user) public users;\n    \n    uint public constant cost= .2 ether;\n    \n    \n    constructor() public{\n        teams[1]= \"Germany\";\n        teams[2]= \"Argentina\";\n        teams[3]= \"Australia\";\n        teams[4]= \"Belgium\";\n        teams[5]= \"Brazil\";\n        teams[6]= \"Colombia\";\n        teams[7]= \"Costa Rica\";\n        teams[8]= \"Croatia\";\n        teams[9]= \"Denmark\";\n        teams[10]= \"Egypt\";\n        teams[11]= \"England\";\n        teams[12]= \"France\";\n        teams[13]= \"Iceland\";\n        teams[14]= \"Ir Iran\";\n        teams[15]= \"Japan\";\n        teams[16]= \"Korea Republic\";\n        teams[17]= \"Mexico\";\n        teams[18]= \"Morocco\";\n        teams[19]= \"Nigeria\";\n        teams[20]= \"Panama\";\n        teams[21]= \"Peru\";\n        teams[22]= \"Poland\";\n        teams[23]= \"Portugal\";\n        teams[24]= \"Russia\";\n        teams[25]= \"Saudi Arabia\";\n        teams[26]= \"Senegal\";\n        teams[27]= \"Serbia\";\n        teams[28]= \"Spain\";\n        teams[29]= \"Sweden\";\n        teams[30]= \"Switzerland\";\n        teams[31]= \"Tunisia\";\n        teams[32]= \"Uruguay\";\n    }\n    \n    modifier onlyAdmin() {\n        \n        require(msg.sender == admin);\n        _;\n    }\n\n    \n    function addUser(uint _place1, uint _place2, uint _place3, string _name, string _password)public  payable{\n        require(test(_password)); //#crypto_Polla2018\n        require(!users[msg.sender].used);\n        users[msg.sender].place1=_place1;\n        users[msg.sender].place2=_place2;\n        users[msg.sender].place3=_place3;\n        \n        users[msg.sender].name=_name;\n        users[msg.sender].date=now;\n        users[msg.sender].used=true;\n        players.push(msg.sender);\n    }\n    \n    function test(string _cad) private pure returns(bool){\n        return keccak256(_cad) == 0x2a56a8951ea80f8d88e626b0e9632a3c2fe7c1f6f450a8838e03734380d1c049;\n    }\n    \n    function setWinners(address [] _winners) public onlyAdmin(){\n       winners= _winners;\n       toVote= true;\n     \n    }\n    \n    function vote(bool _vote) public returns (bool){\n        require(toVote);\n        require(users[msg.sender].voted == false);\n        users[msg.sender].voted=true;\n        \n        if(_vote){\n            votes+=1;\n            if(votes > (playersLength()/2)){\n                payMoney();\n            }\n        }\n        \n        \n        return true;\n    }\n    \n    function payMoney() private{\n        uint toPay= address(this).balance/(winners.length);\n        \n        for(uint x= 0;x<winners.length-1;x++){\n            winners[x].transfer(toPay);\n        }\n        winners[(winners.length)-1].transfer(address(this).balance);\n    }\n    \n    function playersLength() public constant returns(uint){\n        return players.length;\n    }\n    \n     /* Function to recover the funds on the contract */\n    function kill() public onlyAdmin() {\n        selfdestruct(admin);\n    }\n    \n}",
  "sourcePath": "/Users/mac/Desktop/Woonkly_git/quiniela_contract/contracts/quiniela.sol",
  "compiler": {
    "name": "solc",
    "version": "0.4.24+commit.e67f0147.Emscripten.clang"
  },
  "schemaVersion": "2.0.1",
  "updatedAt": "2018-07-31T17:35:37.216Z"
}